:060000000A128A11142906
:10000800F000030EF1000B189E210B19AA21710EA6
:080018008300F00E700E0900D8
:100200008A010A140F3982073F3406345B344F34B5
:1002100066346D347D3407347F346F3477347C3406
:1002200039345E34793471340317831688018901B7
:10023000031383160510851005118511051285120B
:1002400005138513071087100711871107128712EE
:100250000713871308108810081188110812061454
:100260008614412155215C216121031383128501EC
:10027000860187018801031383126921702180217F
:100280003D290313831681138112811101158114F5
:100290000114A42103138316151495141511951137
:1002A00015129512151395130800031383160F13D7
:1002B0008F160F120F1408000313831616149614CA
:1002C0000800031383128B170B108B158B160B1161
:1002D000080005080F39F300050E0F39F400080077
:1002E00073080021F50074080021F600220800219F
:1002F000A60021080021A50020080021A400080074
:1003000003138312A2010508A3006430230203181B
:10031000A20A0318A30003188529A1010A302302A9
:100320000318A10A0318A30003188E29A0010130A5
:10033000A3020318A00A031C08009729061C850ABB
:10034000861C85030B10080003138312FE30810006
:100350000B110800A4210810881008118811081238
:100360007218BC29F218C0297219C429F219C829B7
:10037000750887000814CC29760887008814CF29CF
:10038000260887000815D229250887008815D52951
:10039000240887000816D8290130F2060800033027
:1003A000F20608000630F20608000C30F2060800DB
:0403B000F20108004E
:04400E00D430FF3F6C
:00000001FF
