:020000040000FA
:060000000A128A110E280D
:10000800FE00030EF1000408F2000A08F3000A12C9
:100018008A118F280A128A11112883133530FD009E
:100028000230FE000030FF002B3084000A128A11D3
:10003800E0210A128A11F501F601F70183010A127B
:100048008A11EF2983120313A501A11F2C282D283B
:100058003428A009A109A00A0319A10AA501A50A23
:10006800A31F372838284128A209A309A20A03197F
:10007800A30A0130F4007408A506A601A701200808
:1000880021040319482849288028A401A40A5728CC
:1000980001300310A00DA10DFF3E031D4D280130B6
:1000A800F4007408A407A11F5A285B284C280130C3
:1000B8000310A60DA70DFF3E031D5C28210823028F
:1000C800031D682820082202031C6B286C2873284B
:1000D8002008A2022108031CA303A302261401304E
:1000E8000310A10CA00CFF3E031D74280130A402CC
:1000F800031D7F2880285B28250803198428852864
:100108008A28A609A709A60A0319A70A2708A10089
:100118002608A00008000B1D92289328C5288312E2
:1001280003130911091479082B3E8400831300086E
:1001380087000130F5000030F60075037604031DD2
:10014800A628A728B2280910891436082B3E84004F
:10015800000887000230F5000030F600023075060E
:100168007604031DB828B928C2288910091535084E
:100178002B3E840000088700F501F6010B11FF30C3
:100188008100831203130C1FCA28CB28E9281F0CEF
:10019800F000700C0F39013A031DD328D428DB284E
:1001A800C3309F051E08F0007008F700E1281F08FB
:1001B800C33904389F001E0886001030F000F00B89
:1001C800E3280000831203130C1373088A007208D3
:1001D8008400710E8300FE0E7E0E090064308312C7
:1001E8000313A0000030A1007708A800A90128087F
:1001F800A2002908A3000A128A1126200A128A11CD
:10020800831203132008AA002A08F9006430A0000A
:100218000030A1007708A800A9012808A200290831
:10022800A3000A128A114D210A128A11831203139C
:100238002008AA002A08F8000A30A0000030A1000F
:100248007808A800A9012808A2002908A3000A1212
:100258008A1126200A128A11831203132008AA0081
:100268002A08B6000A30A0000030A1007808A800CB
:10027800A9012808A2002908A3000A128A114D2101
:100288000A128A11831203132008AA002A08B5004B
:10029800080083120313A501A31F532954295B29BE
:1002A800A209A309A20A0319A30AA501A50AA11F65
:1002B8005E295F296429A009A109A00A0319A10AD6
:1002C80020082104031969296A299929A401A40A83
:1002D800782901300310A00DA10DFF3E031D6E29E2
:1002E8000130F4007408A407A11F7B297C296D291B
:1002F80021082302031D822920082202031C8529C4
:1003080086298C292008A2022108031CA303A30222
:1003180001300310A10CA00CFF3E031D8D290130F4
:10032800A402031D982999297C29250803199D29C8
:100338009E29A329A209A309A20A0319A30A23082B
:10034800A1002208A00008000330831603178800C4
:100358008901831603138601870189010514851411
:10036800831203138501870186018901831603130C
:100378000F138F160F120F1481128111011581149A
:100388000114C330831203139F059F171F171F14EF
:10039800831603139F131F129F128B1783120313C5
:1003A8000C13831603130C170B178B160B1108006D
:1003B8007E088A007F0882000A128A11DC210A124C
:1003C8008A118000840A04087D0603190034FF0A94
:1003D8000319FE0AE0290A128A11A8210A128A11B1
:1003E800831203139F140A128A11F2200A128A1127
:1003F800F4290A128A110E283F3406345B344F342C
:0C04080066346D347D3407347F346F346B
:04400E00D420FF3F7C
:00000001FF
