:060000000A128A11142906
:100200008A010A140F3982073F3406345B344F34B5
:1002100066346D347D3407347F346F3477347C3406
:1002200039345E34793471340317831688018901B7
:100230000313831285010313831605148514031316
:100240008312870103138316071087100711871184
:1002500003138312880103138316081088100811F2
:100260008811081288120813881303138312890156
:1002700003138316091003138316C63081005F2110
:1002800003138312051C4D21851C54210B1D462987
:100290005B21870A091066214029051C4D29800A27
:1002A0000008002188000800851C542980030008EC
:1002B0000021880008000C3081000B110800031396
:1002C00083160F138F160F120F1408000708000271
:0E02D00003196B210800890109148701080039
:04400E00C430FF3F7C
:00000001FF
