:020000040000FA
:060000000A128A110C280F
:10000800FE00030EF0000A08F1000A128A111328F4
:100018000A128A110F2883010A128A1160280B1DFF
:10002800162817281F28831203130708013E870084
:100038000B11FF3081000B1C22282328342883123F
:1000480003130618282829282C280508013E8500AE
:1000580086182F28302833280508FF3E85000B1006
:1000680071088A00700E8300FE0E7E0E090083164A
:100078000317880189018316031385018701061474
:1000880086148312031385018701860183160313DF
:100098000F138F160F120F1481128111011581147D
:1000A8000114811303309500161496148B170B1046
:1000B8008B158B160B1108000A128A113B200A12A5
:0A00C8008A1165280A128A110C281B
:04400E00D420FF3F7C
:00000001FF
