:020000040000FA
:060000000A128A110C280F
:10000800FE00030EF2000A08F3000A128A114A28B9
:100018000A128A110F2883010A128A116C28831682
:100028000317880189018316031385018601880156
:1000380083120313850186018801831603130F17A2
:100048008F160F120F1418158316031787158316AA
:100058000313181283120313981718168316031321
:100068009816831203131813673083160313990025
:100078009A018B170B17831203138C128316031321
:100088008C160C16831203130C1208008312031328
:100098000C1E4F285028542840309900623099008F
:1000A8004130F100EE30F000F00B5828F10B5828E1
:1000B8000000831203138C1E6228632865281A081F
:1000C800860073088A00720E8300FE0E7E0E0900F9
:1000D8000A128A1113200A128A1171280A128A1127
:0200E8000C28E2
:04400E00D420FF3F7C
:00000001FF
