:020000040000FA
:060000000A128A110C280F
:10000800FE00030EF0000A08F1000A128A11C62940
:100018000A128A110F2883010A128A11A9290030AD
:100028008A000408840A820700340D3428343134E5
:100038002934203444346534733470346C34653472
:100048006734613472342034633461346434653421
:100058006E3461342034643465342034633461345C
:10006800723461346334743465347234653473348F
:1000780020340D3400340D34203450346F3472344D
:1000880020346634613476346F3472342C3420343E
:1000980069346E34673472346534733465342034AB
:1000A80075346E34203463346134723461346334AB
:1000B8007434653472342E3420340D3400340D34E5
:1000C8002034593441342034533441344C34493485
:1000D8004F3420344C344134203450345234493471
:1000E8004D34453452344134203450344134523440
:1000F800543445342E3420340D3400340D34513406
:1001080075346534203461346334633469346F344E
:100118006E34203464346534733465346134203487
:1001280065346A34653463347534743461347234D4
:100138003F3420340D340034283432342934203408
:10014800433461346D346234693461347234203438
:1001580050344F3452345434413420340D34003444
:100168002834333429342034433461346D346234D0
:10017800693461347234203450344F345234543436
:10018800423420340D340034831203138C1ECD28DE
:10019800CE28C8281A08F7007708F9003130790600
:1001A800031DD728D828E7284130F800EE30F7009B
:1001B800F70BDC28F80BDC2800004B300A128A11F8
:1001C8008A210A128A1132307906031DEC28ED289B
:1001D80004294130F800EE30F700F70BF128F80B4E
:1001E800F128000027300A128A118A210A128A117E
:1001F800831203138C1E01290229FC281A08850082
:1002080033307906031D09290A2921294130F800CC
:10021800EE30F700F70B0E29F80B0E2900002730F7
:100228000A128A118A210A128A11831203138C1E58
:100238001E291F2919291A08860008004130F800CC
:10024800EE30F700F70B2629F80B262900006A3054
:100258000A128A118A210A128A114130F800EE30F6
:10026800F700F70B3529F80B3529000001300A1281
:100278008A118A210A128A114130F800EE30F700FB
:10028800F70B4429F80B4429000088300A128A1118
:100298008A210A128A114130F800EE30F700F70B74
:1002A8005329F80B532900009C300A128A118A211D
:1002B8000A128A1108008316031788018901831618
:1002C80003138501860183120313850186018316B2
:1002D80003130F178F160F120F1418158316031711
:1002E8008715831603131812831203139817181609
:1002F8008316031398168312031318136730831693
:10030800031399009A018B170B170800F600703039
:10031800F3007308F400962975080A128A11BC21A3
:100328000A128A110130F607FF30760784000A1294
:100338008A1113200A128A11F3007308F500750850
:10034800031DA729A829902908000A128A115F21EC
:100358000A128A110A128A1122210A128A110A1211
:100368008A11C8200A128A11AE290A128A110C2889
:10037800F200831203130C1EC229C329BD29720877
:100388009900080071088A00700E8300FE0E7E0E28
:0203980009005A
:04400E00D420FF3F7C
:00000001FF
