:060000000A128A1100291A
:1002000003178316880189010313831285010313E1
:100210008316051485140515851505160513851710
:10022000031383128601031383160610861006112A
:100230008611031383128701031383160710871097
:100240000711871103138312880103138316081003
:100250008810081188110812031383124421051C09
:1002600049214421851C4D214421051D5121442152
:10027000851D55214421051E59212C29C730810097
:100280004421810B40290800F9308000800B462969
:100290000800051C4929860A0800851C4D2986038B
:1002A0000800051D5129870A0800851D5529870367
:0E02B0000800051E59290608070788000800E7
:04400E00C130FF3F7F
:00000001FF
