:060000000A128A11142906
:10000800F000030EF100031383120C185E218C1804
:100018006D210B198D21710E8300F00E700E0900F1
:100200008A010A140F3982073F3406345B344F34B5
:1002100066346D347D3407347F346F3477347C3406
:1002200039345E34793471340317831688018901B7
:1002300003138316071087100711871107128712FF
:1002400007138713081088100811031383168112EF
:100250008111011581140114031383160F138F16D6
:100260000F120F14031383128B178B160B1103132A
:1002700083160C14031383120C100313831210142F
:10028000901010169016031383168C140313831208
:100290008C10031383121217921612169215121550
:1002A000921412140313831287018801031383121B
:1002B000782178187F21781C742158290313831220
:1002C000E1308F00031383127C308E00F70A0C108C
:1002D00008003D3092008C100800692178187229BE
:1002E0007814080078100800F501F60108110800DC
:1002F00077080F39F300770E0F39F4000800730800
:100300000021F50074080021F60008150800031309
:100310008312FF3081000B1108008721081088101C
:10032000721896297508870008149929760887009D
:0803300088140130F2060800F8
:04400E00D430FF3F6C
:00000001FF
