:020000040000FA
:060000000A128A110C280F
:10000800FE00030EF2000A08F3000A128A111328F0
:100018000A128A110F2883010A128A11CA28831228
:1000280003130C1F1828192878281F0CF000700CCF
:100038000F39013A031D212822284928C3309F057A
:100048001E08F0000310700C7D3E9B001E0801394D
:10005800F000F00EF00D1D087006DF3970069D00E7
:10006800831603131E08F00007300310F00CFF3E40
:10007800031D39287008F100F10E831203131D08BF
:100088007106EF3971069D0071281F08C3390438BD
:100098009F001E08F0000310700C7D3E95001E089E
:1000A8000139F000F00EF00D17087006DF39700600
:1000B8009700831603131E08F00007300310F00C96
:1000C800FF3E031D62287008F100F10E831203132E
:1000D80017087106EF39710697002130F000F00B10
:1000E8007328831203130C1373088A00720E83009B
:1000F800FE0E7E0E0900033083160317880089015F
:10010800FF308316031385008312031385018701CB
:10011800831603130F178F160F160F14C33083128D
:1001280003139F059F171F131F14831603139F1391
:100138001F129F1207158714FA3092003F3083125E
:10014800031397051708F0390C3897001D129D12F4
:100158000F309D040F309500CF3097050F309B006E
:100168008C100330920412158C1CBB28BC28B828AC
:100178008C1083160313071187108B178312031330
:100188000C13831603130C170B1708000A128A1195
:100198007F200A128A11831203139F14CF280A1290
:0401A8008A110C2884
:04400E00D428FF3F74
:00000001FF
