:060000000A128A11142906
:10000800F000030EF1000B186F210B197B21710E04
:080018008300F00E700E0900D8
:100200008A010A140F3982073F3406345B344F34B5
:1002100066346D347D3407347F346F3477347C3406
:1002200039345E34793471340317831688018901B7
:10023000031383160510851005118511071087100B
:1002400007118711071287120713871308108810E8
:1002500008118811081288120813881306148614CE
:10026000442157215E2163210313831285018601F6
:100270008701880103138312031383126B217E21EC
:100280007308002188003C2903138316811381120F
:10029000811101158114011403138316151495148B
:1002A00015119511151295121513951308000313C6
:1002B00083160F138F160F120F14080003138316E3
:1002C000161496140800031383128B170B108B154A
:1002D0008B160B1108000508002187000800061C7A
:1002E000850A861C85030B10080003138312FB305C
:1002F00081000B110800F20A7521080032307202E9
:0A030000031D0800F30AF2010800D3
:04400E00D430FF3F6C
:00000001FF
